{
  "contractName": "gfg",
  "abi": [
    {
      "constant": true,
      "inputs": [],
      "name": "geeks",
      "outputs": [
        {
          "name": "",
          "type": "uint256"
        }
      ],
      "payable": false,
      "stateMutability": "pure",
      "type": "function",
      "signature": "0xf1a62c71"
    }
  ],
  "bytecode": "0x6080604052348015600f57600080fd5b5060a18061001e6000396000f3fe608060405260043610603f576000357c0100000000000000000000000000000000000000000000000000000000900463ffffffff168063f1a62c71146044575b600080fd5b348015604f57600080fd5b506056606c565b6040518082815260200191505060405180910390f35b6000600190509056fea165627a7a7230582083b3b10ad30eac9611639310786e57e0c8300caa22529d84201d5e7345ee0ece0029",
  "source": "\npragma solidity >= 0.5.0 < 0.9.0;\n \ncontract gfg{\n  function geeks() public pure returns (uint)\n  {\n    return 1;\n  }\n\n}",
  "sourcePath": "/home/william11ya/code-server/contracts/Vis.sol",
  "compiler": {
    "name": "solc",
    "version": "0.5.0+commit.1d4f565a.Emscripten.clang"
  },
  "schemaVersion": "3.0.1",
  "updatedAt": "2023-05-05T14:32:36.460Z",
  "devdoc": {
    "methods": {}
  },
  "userdoc": {
    "methods": {}
  }
}