{
  "contractName": "gfg",
  "abi": [
    {
      "inputs": [],
      "name": "geeks",
      "outputs": [
        {
          "internalType": "uint256",
          "name": "",
          "type": "uint256"
        }
      ],
      "stateMutability": "pure",
      "type": "function"
    }
  ],
  "bytecode": "0x608060405234801561001057600080fd5b5060b68061001f6000396000f3fe6080604052348015600f57600080fd5b506004361060285760003560e01c8063f1a62c7114602d575b600080fd5b60336047565b604051603e91906067565b60405180910390f35b60006001905090565b6000819050919050565b6061816050565b82525050565b6000602082019050607a6000830184605a565b9291505056fea2646970667358221220ce2767b6e4005e5ef47deefbaeff9b40442c1b053883e3065504bc5d6aaccaaf64736f6c63430008130033",
  "immutableReferences": {},
  "source": "// SPDX-License-Identifier: MIT\npragma solidity ^0.8.0;\n \ncontract gfg{\n  function geeks() public pure returns (uint)\n  {\n    return 1;\n  }\n\n}\n",
  "sourcePath": "/home/william11ya/IPad/block-chain/contracts/Vis.sol",
  "compiler": {
    "name": "solc",
    "version": "0.8.19+commit.7dd6d404.Emscripten.clang"
  },
  "schemaVersion": "3.4.13",
  "updatedAt": "2023-06-05T11:49:48.922Z",
  "devdoc": {
    "kind": "dev",
    "methods": {},
    "version": 1
  },
  "userdoc": {
    "kind": "user",
    "methods": {},
    "version": 1
  }
}