{
  "contractName": "VotingSystem",
  "abi": [
    {
      "inputs": [
        {
          "internalType": "string",
          "name": "voteName",
          "type": "string"
        },
        {
          "internalType": "string[]",
          "name": "candidateNames",
          "type": "string[]"
        },
        {
          "internalType": "uint256",
          "name": "endTime",
          "type": "uint256"
        }
      ],
      "name": "CreateVote",
      "outputs": [
        {
          "internalType": "uint256",
          "name": "",
          "type": "uint256"
        }
      ],
      "stateMutability": "nonpayable",
      "type": "function"
    },
    {
      "inputs": [
        {
          "internalType": "string",
          "name": "voteName",
          "type": "string"
        }
      ],
      "name": "isVoteExist",
      "outputs": [
        {
          "internalType": "bool",
          "name": "",
          "type": "bool"
        }
      ],
      "stateMutability": "view",
      "type": "function",
      "constant": true
    },
    {
      "inputs": [
        {
          "internalType": "string",
          "name": "voteName",
          "type": "string"
        }
      ],
      "name": "getVoteIndex",
      "outputs": [
        {
          "internalType": "int256",
          "name": "",
          "type": "int256"
        }
      ],
      "stateMutability": "view",
      "type": "function",
      "constant": true
    },
    {
      "inputs": [
        {
          "internalType": "uint256",
          "name": "voteId",
          "type": "uint256"
        }
      ],
      "name": "speedTimeForTestingOnly",
      "outputs": [],
      "stateMutability": "nonpayable",
      "type": "function"
    },
    {
      "inputs": [
        {
          "internalType": "uint256",
          "name": "voteId",
          "type": "uint256"
        },
        {
          "internalType": "uint256",
          "name": "candidateIndex",
          "type": "uint256"
        }
      ],
      "name": "vote",
      "outputs": [],
      "stateMutability": "nonpayable",
      "type": "function"
    },
    {
      "inputs": [
        {
          "internalType": "uint256",
          "name": "voteId",
          "type": "uint256"
        }
      ],
      "name": "settle",
      "outputs": [
        {
          "internalType": "string",
          "name": "",
          "type": "string"
        }
      ],
      "stateMutability": "view",
      "type": "function",
      "constant": true
    },
    {
      "inputs": [],
      "name": "getAllRunningVote",
      "outputs": [
        {
          "internalType": "string[]",
          "name": "",
          "type": "string[]"
        }
      ],
      "stateMutability": "nonpayable",
      "type": "function"
    },
    {
      "inputs": [
        {
          "internalType": "uint256",
          "name": "voteId",
          "type": "uint256"
        }
      ],
      "name": "getAllCandidatesName",
      "outputs": [
        {
          "internalType": "string[]",
          "name": "",
          "type": "string[]"
        }
      ],
      "stateMutability": "nonpayable",
      "type": "function"
    },
    {
      "inputs": [
        {
          "internalType": "uint256",
          "name": "voteId",
          "type": "uint256"
        }
      ],
      "name": "getEndTime",
      "outputs": [
        {
          "internalType": "uint256",
          "name": "",
          "type": "uint256"
        }
      ],
      "stateMutability": "view",
      "type": "function",
      "constant": true
    },
    {
      "inputs": [],
      "name": "getAllEndedVote",
      "outputs": [
        {
          "internalType": "uint256[]",
          "name": "",
          "type": "uint256[]"
        }
      ],
      "stateMutability": "nonpayable",
      "type": "function"
    },
    {
      "inputs": [
        {
          "internalType": "uint256",
          "name": "voteId",
          "type": "uint256"
        }
      ],
      "name": "getVoteName",
      "outputs": [
        {
          "internalType": "string",
          "name": "",
          "type": "string"
        }
      ],
      "stateMutability": "view",
      "type": "function",
      "constant": true
    }
  ],
  "bytecode": "0x6080604052600060015534801561001557600080fd5b506120dd806100256000396000f3fe608060405234801561001057600080fd5b50600436106100a95760003560e01c8063accca73111610071578063accca7311461018a578063b384abef146101ba578063c19672f5146101d6578063e07a13a0146101f4578063f3b1b9ed14610212578063f894652714610242576100a9565b806342d7d76e146100ae5780634de0549b146100ca5780638df82800146100fa5780639067b6771461012a5780639400d7611461015a575b600080fd5b6100c860048036038101906100c39190611117565b610272565b005b6100e460048036038101906100df9190611117565b610290565b6040516100f19190611296565b60405180910390f35b610114600480360381019061010f9190611117565b61046c565b6040516101219190611302565b60405180910390f35b610144600480360381019061013f9190611117565b610699565b6040516101519190611333565b60405180910390f35b610174600480360381019061016f9190611117565b610708565b6040516101819190611302565b60405180910390f35b6101a4600480360381019061019f9190611483565b6107af565b6040516101b191906114e7565b60405180910390f35b6101d460048036038101906101cf9190611502565b61084c565b005b6101de610b4e565b6040516101eb9190611296565b60405180910390f35b6101fc610cbd565b6040516102099190611600565b60405180910390f35b61022c60048036038101906102279190611483565b610d8b565b604051610239919061163b565b60405180910390f35b61025c6004803603810190610257919061173c565b610e46565b6040516102699190611333565b60405180910390f35b60008060008381526020019081526020016000206002018190555050565b6060600180546102a091906117f6565b8211156102e2576040517f08c379a00000000000000000000000000000000000000000000000000000000081526004016102d990611876565b60405180910390fd5b600260006102f0919061100a565b60005b60008084815260200190815260200160002060040180549050811015610392576002600080858152602001908152602001600020600401828154811061033c5761033b611896565b5b906000526020600020906002020160000190806001815401808255809150506001900390600052602060002001600090919091909150908161037e9190611afc565b50808061038a90611be4565b9150506102f3565b506002805480602002602001604051908101604052809291908181526020016000905b828210156104615783829060005260206000200180546103d4906118f4565b80601f0160208091040260200160405190810160405280929190818152602001828054610400906118f4565b801561044d5780601f106104225761010080835404028352916020019161044d565b820191906000526020600020905b81548152906001019060200180831161043057829003601f168201915b5050505050815260200190600101906103b5565b505050509050919050565b60606001805461047c91906117f6565b8211156104be576040517f08c379a00000000000000000000000000000000000000000000000000000000081526004016104b590611876565b60405180910390fd5b60008083815260200190815260200160002060020154421015610516576040517f08c379a000000000000000000000000000000000000000000000000000000000815260040161050d90611c78565b60405180910390fd5b60008060005b600080868152602001908152602001600020600401805490508110156105ce5782600080878152602001908152602001600020600401828154811061056457610563611896565b5b90600052602060002090600202016001015411156105bb5760008086815260200190815260200160002060040181815481106105a3576105a2611896565b5b90600052602060002090600202016001015492508091505b80806105c690611be4565b91505061051c565b5060008085815260200190815260200160002060040181815481106105f6576105f5611896565b5b90600052602060002090600202016000018054610612906118f4565b80601f016020809104026020016040519081016040528092919081815260200182805461063e906118f4565b801561068b5780601f106106605761010080835404028352916020019161068b565b820191906000526020600020905b81548152906001019060200180831161066e57829003601f168201915b505050505092505050919050565b6000600180546106a991906117f6565b8211156106eb576040517f08c379a00000000000000000000000000000000000000000000000000000000081526004016106e290611876565b60405180910390fd5b600080838152602001908152602001600020600201549050919050565b6060600080838152602001908152602001600020600001805461072a906118f4565b80601f0160208091040260200160405190810160405280929190818152602001828054610756906118f4565b80156107a35780601f10610778576101008083540402835291602001916107a3565b820191906000526020600020905b81548152906001019060200180831161078657829003601f168201915b50505050509050919050565b6000806000905060005b60015481101561084257836040516020016107d49190611cd4565b6040516020818303038152906040528051906020012060008083815260200190815260200160002060000160405160200161080f9190611d6e565b604051602081830303815290604052805190602001200361082f57600191505b808061083a90611be4565b9150506107b9565b5080915050919050565b6001805461085a91906117f6565b82111561089c576040517f08c379a000000000000000000000000000000000000000000000000000000000815260040161089390611876565b60405180910390fd5b600080838152602001908152602001600020600201544211156108f4576040517f08c379a00000000000000000000000000000000000000000000000000000000081526004016108eb90611dd1565b60405180910390fd5b60008083815260200190815260200160002060030160003373ffffffffffffffffffffffffffffffffffffffff1673ffffffffffffffffffffffffffffffffffffffff16815260200190815260200160002060009054906101000a900460ff1615610994576040517f08c379a000000000000000000000000000000000000000000000000000000000815260040161098b90611e3d565b60405180910390fd5b6000808381526020019081526020016000206004018054905081106109ee576040517f08c379a00000000000000000000000000000000000000000000000000000000081526004016109e590611ea9565b60405180910390fd5b3373ffffffffffffffffffffffffffffffffffffffff1660008084815260200190815260200160002060010160009054906101000a900473ffffffffffffffffffffffffffffffffffffffff1673ffffffffffffffffffffffffffffffffffffffff1603610a91576040517f08c379a0000000000000000000000000000000000000000000000000000000008152600401610a8890611f15565b60405180910390fd5b600160008084815260200190815260200160002060030160003373ffffffffffffffffffffffffffffffffffffffff1673ffffffffffffffffffffffffffffffffffffffff16815260200190815260200160002060006101000a81548160ff0219169083151502179055506000808381526020019081526020016000206004018181548110610b2357610b22611896565b5b90600052602060002090600202016001016000815480929190610b4590611be4565b91905055505050565b606060026000610b5e919061100a565b60005b600154811015610be55742600080838152602001908152602001600020600201541115610bd2576002600080838152602001908152602001600020600001908060018154018082558091505060019003906000526020600020016000909190919091509081610bd09190611afc565b505b8080610bdd90611be4565b915050610b61565b506002805480602002602001604051908101604052809291908181526020016000905b82821015610cb4578382906000526020600020018054610c27906118f4565b80601f0160208091040260200160405190810160405280929190818152602001828054610c53906118f4565b8015610ca05780601f10610c7557610100808354040283529160200191610ca0565b820191906000526020600020905b815481529060010190602001808311610c8357829003601f168201915b505050505081526020019060010190610c08565b50505050905090565b606060036000610ccd919061102b565b60005b600154811015610d345742600080838152602001908152602001600020600201541015610d215760038190806001815401808255809150506001900390600052602060002001600090919091909150555b8080610d2c90611be4565b915050610cd0565b506003805480602002602001604051908101604052809291908181526020018280548015610d8157602002820191906000526020600020905b815481526020019060010190808311610d6d575b5050505050905090565b6000807fffffffffffffffffffffffffffffffffffffffffffffffffffffffffffffffff905060005b600154811015610e3c5783604051602001610dcf9190611cd4565b60405160208183030381529060405280519060200120600080838152602001908152602001600020600001604051602001610e0a9190611d6e565b6040516020818303038152906040528051906020012003610e29578091505b8080610e3490611be4565b915050610db4565b5080915050919050565b6000801515610e54856107af565b151514610e96576040517f08c379a0000000000000000000000000000000000000000000000000000000008152600401610e8d90611f81565b60405180910390fd5b8142610ea29190611fa1565b6000806001548152602001908152602001600020600201819055508360008060015481526020019081526020016000206000019081610ee19190611fd5565b5033600080600154815260200190815260200160002060010160006101000a81548173ffffffffffffffffffffffffffffffffffffffff021916908373ffffffffffffffffffffffffffffffffffffffff16021790555060005b8351811015610fe95760008060015481526020019081526020016000206004016040518060400160405280868481518110610f7957610f78611896565b5b60200260200101518152602001600081525090806001815401808255809150506001900390600052602060002090600202016000909190919091506000820151816000019081610fc99190611fd5565b506020820151816001015550508080610fe190611be4565b915050610f3b565b5060016000815480929190610ffd90611be4565b9190505590509392505050565b5080546000825590600052602060002090810190611028919061104c565b50565b50805460008255906000526020600020908101906110499190611070565b50565b5b8082111561106c5760008181611063919061108d565b5060010161104d565b5090565b5b80821115611089576000816000905550600101611071565b5090565b508054611099906118f4565b6000825580601f106110ab57506110ca565b601f0160209004906000526020600020908101906110c99190611070565b5b50565b6000604051905090565b600080fd5b600080fd5b6000819050919050565b6110f4816110e1565b81146110ff57600080fd5b50565b600081359050611111816110eb565b92915050565b60006020828403121561112d5761112c6110d7565b5b600061113b84828501611102565b91505092915050565b600081519050919050565b600082825260208201905092915050565b6000819050602082019050919050565b600081519050919050565b600082825260208201905092915050565b60005b838110156111aa57808201518184015260208101905061118f565b60008484015250505050565b6000601f19601f8301169050919050565b60006111d282611170565b6111dc818561117b565b93506111ec81856020860161118c565b6111f5816111b6565b840191505092915050565b600061120c83836111c7565b905092915050565b6000602082019050919050565b600061122c82611144565b611236818561114f565b93508360208202850161124885611160565b8060005b8581101561128457848403895281516112658582611200565b945061127083611214565b925060208a0199505060018101905061124c565b50829750879550505050505092915050565b600060208201905081810360008301526112b08184611221565b905092915050565b600082825260208201905092915050565b60006112d482611170565b6112de81856112b8565b93506112ee81856020860161118c565b6112f7816111b6565b840191505092915050565b6000602082019050818103600083015261131c81846112c9565b905092915050565b61132d816110e1565b82525050565b60006020820190506113486000830184611324565b92915050565b600080fd5b600080fd5b7f4e487b7100000000000000000000000000000000000000000000000000000000600052604160045260246000fd5b611390826111b6565b810181811067ffffffffffffffff821117156113af576113ae611358565b5b80604052505050565b60006113c26110cd565b90506113ce8282611387565b919050565b600067ffffffffffffffff8211156113ee576113ed611358565b5b6113f7826111b6565b9050602081019050919050565b82818337600083830152505050565b6000611426611421846113d3565b6113b8565b90508281526020810184848401111561144257611441611353565b5b61144d848285611404565b509392505050565b600082601f83011261146a5761146961134e565b5b813561147a848260208601611413565b91505092915050565b600060208284031215611499576114986110d7565b5b600082013567ffffffffffffffff8111156114b7576114b66110dc565b5b6114c384828501611455565b91505092915050565b60008115159050919050565b6114e1816114cc565b82525050565b60006020820190506114fc60008301846114d8565b92915050565b60008060408385031215611519576115186110d7565b5b600061152785828601611102565b925050602061153885828601611102565b9150509250929050565b600081519050919050565b600082825260208201905092915050565b6000819050602082019050919050565b611577816110e1565b82525050565b6000611589838361156e565b60208301905092915050565b6000602082019050919050565b60006115ad82611542565b6115b7818561154d565b93506115c28361155e565b8060005b838110156115f35781516115da888261157d565b97506115e583611595565b9250506001810190506115c6565b5085935050505092915050565b6000602082019050818103600083015261161a81846115a2565b905092915050565b6000819050919050565b61163581611622565b82525050565b6000602082019050611650600083018461162c565b92915050565b600067ffffffffffffffff82111561167157611670611358565b5b602082029050602081019050919050565b600080fd5b600061169a61169584611656565b6113b8565b905080838252602082019050602084028301858111156116bd576116bc611682565b5b835b8181101561170457803567ffffffffffffffff8111156116e2576116e161134e565b5b8086016116ef8982611455565b855260208501945050506020810190506116bf565b5050509392505050565b600082601f8301126117235761172261134e565b5b8135611733848260208601611687565b91505092915050565b600080600060608486031215611755576117546110d7565b5b600084013567ffffffffffffffff811115611773576117726110dc565b5b61177f86828701611455565b935050602084013567ffffffffffffffff8111156117a05761179f6110dc565b5b6117ac8682870161170e565b92505060406117bd86828701611102565b9150509250925092565b7f4e487b7100000000000000000000000000000000000000000000000000000000600052601160045260246000fd5b6000611801826110e1565b915061180c836110e1565b9250828203905081811115611824576118236117c7565b5b92915050565b7f566f7465204944206f7574206f662072616e6765000000000000000000000000600082015250565b60006118606014836112b8565b915061186b8261182a565b602082019050919050565b6000602082019050818103600083015261188f81611853565b9050919050565b7f4e487b7100000000000000000000000000000000000000000000000000000000600052603260045260246000fd5b7f4e487b7100000000000000000000000000000000000000000000000000000000600052602260045260246000fd5b6000600282049050600182168061190c57607f821691505b60208210810361191f5761191e6118c5565b5b50919050565b600081549050611934816118f4565b9050919050565b60008190508160005260206000209050919050565b60008190508160005260206000209050919050565b60006020601f8301049050919050565b600082821b905092915050565b6000600883026119b27fffffffffffffffffffffffffffffffffffffffffffffffffffffffffffffffff82611975565b6119bc8683611975565b95508019841693508086168417925050509392505050565b6000819050919050565b60006119f96119f46119ef846110e1565b6119d4565b6110e1565b9050919050565b6000819050919050565b611a13836119de565b611a27611a1f82611a00565b848454611982565b825550505050565b600090565b611a3c611a2f565b611a47818484611a0a565b505050565b5b81811015611a6b57611a60600082611a34565b600181019050611a4d565b5050565b601f821115611ab057611a818161193b565b611a8a84611965565b81016020851015611a99578190505b611aad611aa585611965565b830182611a4c565b50505b505050565b600082821c905092915050565b6000611ad360001984600802611ab5565b1980831691505092915050565b6000611aec8383611ac2565b9150826002028217905092915050565b818103611b0a575050611be2565b611b1382611925565b67ffffffffffffffff811115611b2c57611b2b611358565b5b611b3682546118f4565b611b41828285611a6f565b6000601f831160018114611b705760008415611b5e578287015490505b611b688582611ae0565b865550611bdb565b601f198416611b7e87611950565b9650611b898661193b565b60005b82811015611bb157848901548255600182019150600185019450602081019050611b8c565b86831015611bce5784890154611bca601f891682611ac2565b8355505b6001600288020188555050505b5050505050505b565b6000611bef826110e1565b91507fffffffffffffffffffffffffffffffffffffffffffffffffffffffffffffffff8203611c2157611c206117c7565b5b600182019050919050565b7f566f74696e67206973206e6f7420796574206f7665722e000000000000000000600082015250565b6000611c626017836112b8565b9150611c6d82611c2c565b602082019050919050565b60006020820190508181036000830152611c9181611c55565b9050919050565b600081905092915050565b6000611cae82611170565b611cb88185611c98565b9350611cc881856020860161118c565b80840191505092915050565b6000611ce08284611ca3565b915081905092915050565b60008154611cf8816118f4565b611d028186611c98565b94506001821660008114611d1d5760018114611d3257611d65565b60ff1983168652811515820286019350611d65565b611d3b8561193b565b60005b83811015611d5d57815481890152600182019150602081019050611d3e565b838801955050505b50505092915050565b6000611d7a8284611ceb565b915081905092915050565b7f566f74696e672068617320656e6465642e000000000000000000000000000000600082015250565b6000611dbb6011836112b8565b9150611dc682611d85565b602082019050919050565b60006020820190508181036000830152611dea81611dae565b9050919050565b7f596f75206861766520616c726561647920766f7465642e000000000000000000600082015250565b6000611e276017836112b8565b9150611e3282611df1565b602082019050919050565b60006020820190508181036000830152611e5681611e1a565b9050919050565b7f496e76616c69642063616e64696461746520696e6465782e0000000000000000600082015250565b6000611e936018836112b8565b9150611e9e82611e5d565b602082019050919050565b60006020820190508181036000830152611ec281611e86565b9050919050565b7f596f752061726520746865206f776e6572206f66207468697320766f74652e00600082015250565b6000611eff601f836112b8565b9150611f0a82611ec9565b602082019050919050565b60006020820190508181036000830152611f2e81611ef2565b9050919050565b7f5468697320766f746520616c7265616479206578697374000000000000000000600082015250565b6000611f6b6017836112b8565b9150611f7682611f35565b602082019050919050565b60006020820190508181036000830152611f9a81611f5e565b9050919050565b6000611fac826110e1565b9150611fb7836110e1565b9250828201905080821115611fcf57611fce6117c7565b5b92915050565b611fde82611170565b67ffffffffffffffff811115611ff757611ff6611358565b5b61200182546118f4565b61200c828285611a6f565b600060209050601f83116001811461203f576000841561202d578287015190505b6120378582611ae0565b86555061209f565b601f19841661204d8661193b565b60005b8281101561207557848901518255600182019150602085019450602081019050612050565b86831015612092578489015161208e601f891682611ac2565b8355505b6001600288020188555050505b50505050505056fea26469706673582212206934633c3360476c94d0b941d18da0887b3eb43f953563d4f2980292bdfb5b3764736f6c63430008130033",
  "immutableReferences": {},
  "source": "// SPDX-License-Identifier: MIT\npragma solidity ^0.8.0;\n\ncontract VotingSystem {\n\n    struct VoteEvent {\n        string voteName;\n        address owner;\n        uint voteEndTime;\n        mapping(address => bool) hasVoted;\n        Candidate[] candidates;\n    }\n\n    struct Candidate {\n        string name;\n        uint voteCount;\n    }\n\n    mapping(uint => VoteEvent) voteEvents; \n    uint index = 0;\n\n    function CreateVote(string memory voteName, string[] memory candidateNames, uint endTime) public returns (uint) {\n        require(isVoteExist(voteName) == false, \"This vote already exist\");\n\n        voteEvents[index].voteEndTime = block.timestamp + endTime;\n        voteEvents[index].voteName = voteName;\n        voteEvents[index].owner = msg.sender;\n        for (uint i = 0; i < candidateNames.length; i++) {\n            voteEvents[index].candidates.push(Candidate(candidateNames[i], 0));\n        }\n        return index++;\n    }\n\n    function isVoteExist(string memory voteName) public view returns (bool) {\n        bool check = false;\n        for (uint i = 0; i < index; i++) \n        {\n            if(keccak256(abi.encodePacked(voteEvents[i].voteName)) == keccak256(abi.encodePacked(voteName))){\n                check = true;\n            }           \n        }\n        return check;\n    }\n\n    function getVoteIndex(string memory voteName) public view returns (int) {\n        int a = -1;\n        for (uint i = 0; i < index; i++) \n        {\n            if(keccak256(abi.encodePacked(voteEvents[i].voteName)) == keccak256(abi.encodePacked(voteName))){\n                a = int(i);    \n            } \n        }\n        return a;\n    }\n\n    //fuctionjs\n    function speedTimeForTestingOnly(uint voteId) public {        \n        voteEvents[voteId].voteEndTime = 0;\n    }\n\n    function vote(uint voteId, uint candidateIndex) public {\n        require(voteId <= index - 1, \"Vote ID out of range\");\n        // VoteEvent memory _vt = voteEvents[voteId];\n        require(block.timestamp <= voteEvents[voteId].voteEndTime, \"Voting has ended.\");\n        // \n        require(!voteEvents[voteId].hasVoted[msg.sender], \"You have already voted.\");\n        // \n        require(candidateIndex < voteEvents[voteId].candidates.length, \"Invalid candidate index.\");\n        require(voteEvents[voteId].owner != msg.sender, \"You are the owner of this vote.\");\n        // \n        voteEvents[voteId].hasVoted[msg.sender] = true;\n        // \n        voteEvents[voteId].candidates[candidateIndex].voteCount++;\n    }\n\n    function settle(uint voteId) public view returns (string memory) {\n        require(voteId <= index - 1, \"Vote ID out of range\");\n        // VoteEvent memory _vt = voteEvent[voteId];\n        require(block.timestamp >= voteEvents[voteId].voteEndTime, \"Voting is not yet over.\");\n\n        // \n        uint maxVoteCount = 0;\n        uint winningCandidateIndex = 0;\n        for (uint i = 0; i < voteEvents[voteId].candidates.length; i++) {\n            if (voteEvents[voteId].candidates[i].voteCount > maxVoteCount) {\n                maxVoteCount = voteEvents[voteId].candidates[i].voteCount;\n                winningCandidateIndex = i;\n            }\n        }\n\n        // \n        return voteEvents[voteId].candidates[winningCandidateIndex].name;\n    }\n\n    string[] Tmp;\n    uint[] TmpInt;\n    function getAllRunningVote() public returns (string[] memory) {\n        delete Tmp;\n        for (uint i = 0; i < index; i++) \n        {\n            if(voteEvents[i].voteEndTime > block.timestamp)\n            {\n                Tmp.push(voteEvents[i].voteName);\n            }\n        }\n        return Tmp;\n    }\n\n    function getAllCandidatesName(uint voteId) public returns (string[] memory) {\n        require(voteId <= index - 1, \"Vote ID out of range\");\n        delete Tmp;\n        for (uint i = 0; i < voteEvents[voteId].candidates.length; i++) \n        {\n            Tmp.push(voteEvents[voteId].candidates[i].name);\n        }\n        return Tmp;\n    }\n\n    function getEndTime(uint voteId) public view returns (uint) {\n        require(voteId <= index - 1, \"Vote ID out of range\");\n        return voteEvents[voteId].voteEndTime;\n    }\n    \n    function getAllEndedVote() public returns (uint[] memory) {\n        delete TmpInt;\n        for (uint i = 0; i < index; i++) \n        {\n            if(voteEvents[i].voteEndTime < block.timestamp)\n            {\n                TmpInt.push(i);\n            }\n        }\n        return TmpInt;\n    }\n\n    function getVoteName(uint voteId) public view returns (string memory) {\n        return voteEvents[voteId].voteName;\n    }\n}\n",
  "sourcePath": "/home/william11ya/IPad/block-chain/contracts/VotingSystem.sol",
  "compiler": {
    "name": "solc",
    "version": "0.8.19+commit.7dd6d404.Emscripten.clang"
  },
  "schemaVersion": "3.4.13",
  "updatedAt": "2023-06-06T13:37:33.492Z",
  "networkType": "ethereum",
  "devdoc": {
    "kind": "dev",
    "methods": {},
    "version": 1
  },
  "userdoc": {
    "kind": "user",
    "methods": {},
    "version": 1
  }
}