{
  "contractName": "VotingSystem",
  "abi": [
    {
      "inputs": [
        {
          "internalType": "string",
          "name": "voteName",
          "type": "string"
        },
        {
          "internalType": "string[]",
          "name": "candidateNames",
          "type": "string[]"
        },
        {
          "internalType": "uint256",
          "name": "endTime",
          "type": "uint256"
        }
      ],
      "name": "CreateVote",
      "outputs": [
        {
          "internalType": "uint256",
          "name": "",
          "type": "uint256"
        }
      ],
      "stateMutability": "nonpayable",
      "type": "function"
    },
    {
      "inputs": [
        {
          "internalType": "string",
          "name": "voteName",
          "type": "string"
        }
      ],
      "name": "isVoteExist",
      "outputs": [
        {
          "internalType": "bool",
          "name": "",
          "type": "bool"
        }
      ],
      "stateMutability": "view",
      "type": "function",
      "constant": true
    },
    {
      "inputs": [
        {
          "internalType": "string",
          "name": "voteName",
          "type": "string"
        }
      ],
      "name": "getVoteIndex",
      "outputs": [
        {
          "internalType": "int256",
          "name": "",
          "type": "int256"
        }
      ],
      "stateMutability": "view",
      "type": "function",
      "constant": true
    },
    {
      "inputs": [
        {
          "internalType": "uint256",
          "name": "voteId",
          "type": "uint256"
        }
      ],
      "name": "speedTimeForTestingOnly",
      "outputs": [],
      "stateMutability": "nonpayable",
      "type": "function"
    },
    {
      "inputs": [
        {
          "internalType": "uint256",
          "name": "voteId",
          "type": "uint256"
        },
        {
          "internalType": "uint256",
          "name": "candidateIndex",
          "type": "uint256"
        }
      ],
      "name": "vote",
      "outputs": [],
      "stateMutability": "nonpayable",
      "type": "function"
    },
    {
      "inputs": [
        {
          "internalType": "uint256",
          "name": "voteId",
          "type": "uint256"
        }
      ],
      "name": "settle",
      "outputs": [
        {
          "internalType": "string",
          "name": "",
          "type": "string"
        }
      ],
      "stateMutability": "view",
      "type": "function",
      "constant": true
    },
    {
      "inputs": [],
      "name": "getAllRunningVote",
      "outputs": [
        {
          "internalType": "string[]",
          "name": "",
          "type": "string[]"
        }
      ],
      "stateMutability": "nonpayable",
      "type": "function"
    },
    {
      "inputs": [
        {
          "internalType": "uint256",
          "name": "voteId",
          "type": "uint256"
        }
      ],
      "name": "getAllCandidatesName",
      "outputs": [
        {
          "internalType": "string[]",
          "name": "",
          "type": "string[]"
        }
      ],
      "stateMutability": "nonpayable",
      "type": "function"
    },
    {
      "inputs": [
        {
          "internalType": "uint256",
          "name": "voteId",
          "type": "uint256"
        }
      ],
      "name": "getEndTime",
      "outputs": [
        {
          "internalType": "uint256",
          "name": "",
          "type": "uint256"
        }
      ],
      "stateMutability": "view",
      "type": "function",
      "constant": true
    }
  ],
  "bytecode": "0x6080604052600060015534801561001557600080fd5b50611e16806100256000396000f3fe608060405234801561001057600080fd5b50600436106100935760003560e01c8063accca73111610066578063accca73114610144578063b384abef14610174578063c19672f514610190578063f3b1b9ed146101ae578063f8946527146101de57610093565b806342d7d76e146100985780634de0549b146100b45780638df82800146100e45780639067b67714610114575b600080fd5b6100b260048036038101906100ad9190610f30565b61020e565b005b6100ce60048036038101906100c99190610f30565b61023f565b6040516100db91906110af565b60405180910390f35b6100fe60048036038101906100f99190610f30565b61041b565b60405161010b919061111b565b60405180910390f35b61012e60048036038101906101299190610f30565b610648565b60405161013b919061114c565b60405180910390f35b61015e6004803603810190610159919061129c565b6106b7565b60405161016b9190611300565b60405180910390f35b61018e6004803603810190610189919061131b565b610754565b005b610198610a56565b6040516101a591906110af565b60405180910390f35b6101c860048036038101906101c3919061129c565b610bc5565b6040516101d59190611374565b60405180910390f35b6101f860048036038101906101f39190611475565b610c80565b604051610205919061114c565b60405180910390f35b6107d06000808381526020019081526020016000206002016000828254610235919061152f565b9250508190555050565b60606001805461024f919061152f565b821115610291576040517f08c379a0000000000000000000000000000000000000000000000000000000008152600401610288906115af565b60405180910390fd5b6002600061029f9190610e44565b60005b6000808481526020019081526020016000206004018054905081101561034157600260008085815260200190815260200160002060040182815481106102eb576102ea6115cf565b5b906000526020600020906002020160000190806001815401808255809150506001900390600052602060002001600090919091909150908161032d9190611835565b5080806103399061191d565b9150506102a2565b506002805480602002602001604051908101604052809291908181526020016000905b828210156104105783829060005260206000200180546103839061162d565b80601f01602080910402602001604051908101604052809291908181526020018280546103af9061162d565b80156103fc5780601f106103d1576101008083540402835291602001916103fc565b820191906000526020600020905b8154815290600101906020018083116103df57829003601f168201915b505050505081526020019060010190610364565b505050509050919050565b60606001805461042b919061152f565b82111561046d576040517f08c379a0000000000000000000000000000000000000000000000000000000008152600401610464906115af565b60405180910390fd5b600080838152602001908152602001600020600201544210156104c5576040517f08c379a00000000000000000000000000000000000000000000000000000000081526004016104bc906119b1565b60405180910390fd5b60008060005b6000808681526020019081526020016000206004018054905081101561057d57826000808781526020019081526020016000206004018281548110610513576105126115cf565b5b906000526020600020906002020160010154111561056a576000808681526020019081526020016000206004018181548110610552576105516115cf565b5b90600052602060002090600202016001015492508091505b80806105759061191d565b9150506104cb565b5060008085815260200190815260200160002060040181815481106105a5576105a46115cf565b5b906000526020600020906002020160000180546105c19061162d565b80601f01602080910402602001604051908101604052809291908181526020018280546105ed9061162d565b801561063a5780601f1061060f5761010080835404028352916020019161063a565b820191906000526020600020905b81548152906001019060200180831161061d57829003601f168201915b505050505092505050919050565b600060018054610658919061152f565b82111561069a576040517f08c379a0000000000000000000000000000000000000000000000000000000008152600401610691906115af565b60405180910390fd5b600080838152602001908152602001600020600201549050919050565b6000806000905060005b60015481101561074a57836040516020016106dc9190611a0d565b604051602081830303815290604052805190602001206000808381526020019081526020016000206000016040516020016107179190611aa7565b604051602081830303815290604052805190602001200361073757600191505b80806107429061191d565b9150506106c1565b5080915050919050565b60018054610762919061152f565b8211156107a4576040517f08c379a000000000000000000000000000000000000000000000000000000000815260040161079b906115af565b60405180910390fd5b600080838152602001908152602001600020600201544211156107fc576040517f08c379a00000000000000000000000000000000000000000000000000000000081526004016107f390611b0a565b60405180910390fd5b60008083815260200190815260200160002060030160003373ffffffffffffffffffffffffffffffffffffffff1673ffffffffffffffffffffffffffffffffffffffff16815260200190815260200160002060009054906101000a900460ff161561089c576040517f08c379a000000000000000000000000000000000000000000000000000000000815260040161089390611b76565b60405180910390fd5b6000808381526020019081526020016000206004018054905081106108f6576040517f08c379a00000000000000000000000000000000000000000000000000000000081526004016108ed90611be2565b60405180910390fd5b3373ffffffffffffffffffffffffffffffffffffffff1660008084815260200190815260200160002060010160009054906101000a900473ffffffffffffffffffffffffffffffffffffffff1673ffffffffffffffffffffffffffffffffffffffff1603610999576040517f08c379a000000000000000000000000000000000000000000000000000000000815260040161099090611c4e565b60405180910390fd5b600160008084815260200190815260200160002060030160003373ffffffffffffffffffffffffffffffffffffffff1673ffffffffffffffffffffffffffffffffffffffff16815260200190815260200160002060006101000a81548160ff0219169083151502179055506000808381526020019081526020016000206004018181548110610a2b57610a2a6115cf565b5b90600052602060002090600202016001016000815480929190610a4d9061191d565b91905055505050565b606060026000610a669190610e44565b60005b600154811015610aed5742600080838152602001908152602001600020600201541115610ada576002600080838152602001908152602001600020600001908060018154018082558091505060019003906000526020600020016000909190919091509081610ad89190611835565b505b8080610ae59061191d565b915050610a69565b506002805480602002602001604051908101604052809291908181526020016000905b82821015610bbc578382906000526020600020018054610b2f9061162d565b80601f0160208091040260200160405190810160405280929190818152602001828054610b5b9061162d565b8015610ba85780601f10610b7d57610100808354040283529160200191610ba8565b820191906000526020600020905b815481529060010190602001808311610b8b57829003601f168201915b505050505081526020019060010190610b10565b50505050905090565b6000807fffffffffffffffffffffffffffffffffffffffffffffffffffffffffffffffff905060005b600154811015610c765783604051602001610c099190611a0d565b60405160208183030381529060405280519060200120600080838152602001908152602001600020600001604051602001610c449190611aa7565b6040516020818303038152906040528051906020012003610c63578091505b8080610c6e9061191d565b915050610bee565b5080915050919050565b6000801515610c8e856106b7565b151514610cd0576040517f08c379a0000000000000000000000000000000000000000000000000000000008152600401610cc790611cba565b60405180910390fd5b8142610cdc9190611cda565b6000806001548152602001908152602001600020600201819055508360008060015481526020019081526020016000206000019081610d1b9190611d0e565b5033600080600154815260200190815260200160002060010160006101000a81548173ffffffffffffffffffffffffffffffffffffffff021916908373ffffffffffffffffffffffffffffffffffffffff16021790555060005b8351811015610e235760008060015481526020019081526020016000206004016040518060400160405280868481518110610db357610db26115cf565b5b60200260200101518152602001600081525090806001815401808255809150506001900390600052602060002090600202016000909190919091506000820151816000019081610e039190611d0e565b506020820151816001015550508080610e1b9061191d565b915050610d75565b5060016000815480929190610e379061191d565b9190505590509392505050565b5080546000825590600052602060002090810190610e629190610e65565b50565b5b80821115610e855760008181610e7c9190610e89565b50600101610e66565b5090565b508054610e959061162d565b6000825580601f10610ea75750610ec6565b601f016020900490600052602060002090810190610ec59190610ec9565b5b50565b5b80821115610ee2576000816000905550600101610eca565b5090565b6000604051905090565b600080fd5b600080fd5b6000819050919050565b610f0d81610efa565b8114610f1857600080fd5b50565b600081359050610f2a81610f04565b92915050565b600060208284031215610f4657610f45610ef0565b5b6000610f5484828501610f1b565b91505092915050565b600081519050919050565b600082825260208201905092915050565b6000819050602082019050919050565b600081519050919050565b600082825260208201905092915050565b60005b83811015610fc3578082015181840152602081019050610fa8565b60008484015250505050565b6000601f19601f8301169050919050565b6000610feb82610f89565b610ff58185610f94565b9350611005818560208601610fa5565b61100e81610fcf565b840191505092915050565b60006110258383610fe0565b905092915050565b6000602082019050919050565b600061104582610f5d565b61104f8185610f68565b93508360208202850161106185610f79565b8060005b8581101561109d578484038952815161107e8582611019565b94506110898361102d565b925060208a01995050600181019050611065565b50829750879550505050505092915050565b600060208201905081810360008301526110c9818461103a565b905092915050565b600082825260208201905092915050565b60006110ed82610f89565b6110f781856110d1565b9350611107818560208601610fa5565b61111081610fcf565b840191505092915050565b6000602082019050818103600083015261113581846110e2565b905092915050565b61114681610efa565b82525050565b6000602082019050611161600083018461113d565b92915050565b600080fd5b600080fd5b7f4e487b7100000000000000000000000000000000000000000000000000000000600052604160045260246000fd5b6111a982610fcf565b810181811067ffffffffffffffff821117156111c8576111c7611171565b5b80604052505050565b60006111db610ee6565b90506111e782826111a0565b919050565b600067ffffffffffffffff82111561120757611206611171565b5b61121082610fcf565b9050602081019050919050565b82818337600083830152505050565b600061123f61123a846111ec565b6111d1565b90508281526020810184848401111561125b5761125a61116c565b5b61126684828561121d565b509392505050565b600082601f83011261128357611282611167565b5b813561129384826020860161122c565b91505092915050565b6000602082840312156112b2576112b1610ef0565b5b600082013567ffffffffffffffff8111156112d0576112cf610ef5565b5b6112dc8482850161126e565b91505092915050565b60008115159050919050565b6112fa816112e5565b82525050565b600060208201905061131560008301846112f1565b92915050565b6000806040838503121561133257611331610ef0565b5b600061134085828601610f1b565b925050602061135185828601610f1b565b9150509250929050565b6000819050919050565b61136e8161135b565b82525050565b60006020820190506113896000830184611365565b92915050565b600067ffffffffffffffff8211156113aa576113a9611171565b5b602082029050602081019050919050565b600080fd5b60006113d36113ce8461138f565b6111d1565b905080838252602082019050602084028301858111156113f6576113f56113bb565b5b835b8181101561143d57803567ffffffffffffffff81111561141b5761141a611167565b5b808601611428898261126e565b855260208501945050506020810190506113f8565b5050509392505050565b600082601f83011261145c5761145b611167565b5b813561146c8482602086016113c0565b91505092915050565b60008060006060848603121561148e5761148d610ef0565b5b600084013567ffffffffffffffff8111156114ac576114ab610ef5565b5b6114b88682870161126e565b935050602084013567ffffffffffffffff8111156114d9576114d8610ef5565b5b6114e586828701611447565b92505060406114f686828701610f1b565b9150509250925092565b7f4e487b7100000000000000000000000000000000000000000000000000000000600052601160045260246000fd5b600061153a82610efa565b915061154583610efa565b925082820390508181111561155d5761155c611500565b5b92915050565b7f566f7465204944206f7574206f662072616e6765000000000000000000000000600082015250565b60006115996014836110d1565b91506115a482611563565b602082019050919050565b600060208201905081810360008301526115c88161158c565b9050919050565b7f4e487b7100000000000000000000000000000000000000000000000000000000600052603260045260246000fd5b7f4e487b7100000000000000000000000000000000000000000000000000000000600052602260045260246000fd5b6000600282049050600182168061164557607f821691505b602082108103611658576116576115fe565b5b50919050565b60008154905061166d8161162d565b9050919050565b60008190508160005260206000209050919050565b60008190508160005260206000209050919050565b60006020601f8301049050919050565b600082821b905092915050565b6000600883026116eb7fffffffffffffffffffffffffffffffffffffffffffffffffffffffffffffffff826116ae565b6116f586836116ae565b95508019841693508086168417925050509392505050565b6000819050919050565b600061173261172d61172884610efa565b61170d565b610efa565b9050919050565b6000819050919050565b61174c83611717565b61176061175882611739565b8484546116bb565b825550505050565b600090565b611775611768565b611780818484611743565b505050565b5b818110156117a45761179960008261176d565b600181019050611786565b5050565b601f8211156117e9576117ba81611674565b6117c38461169e565b810160208510156117d2578190505b6117e66117de8561169e565b830182611785565b50505b505050565b600082821c905092915050565b600061180c600019846008026117ee565b1980831691505092915050565b600061182583836117fb565b9150826002028217905092915050565b81810361184357505061191b565b61184c8261165e565b67ffffffffffffffff81111561186557611864611171565b5b61186f825461162d565b61187a8282856117a8565b6000601f8311600181146118a95760008415611897578287015490505b6118a18582611819565b865550611914565b601f1984166118b787611689565b96506118c286611674565b60005b828110156118ea578489015482556001820191506001850194506020810190506118c5565b868310156119075784890154611903601f8916826117fb565b8355505b6001600288020188555050505b5050505050505b565b600061192882610efa565b91507fffffffffffffffffffffffffffffffffffffffffffffffffffffffffffffffff820361195a57611959611500565b5b600182019050919050565b7f566f74696e67206973206e6f7420796574206f7665722e000000000000000000600082015250565b600061199b6017836110d1565b91506119a682611965565b602082019050919050565b600060208201905081810360008301526119ca8161198e565b9050919050565b600081905092915050565b60006119e782610f89565b6119f181856119d1565b9350611a01818560208601610fa5565b80840191505092915050565b6000611a1982846119dc565b915081905092915050565b60008154611a318161162d565b611a3b81866119d1565b94506001821660008114611a565760018114611a6b57611a9e565b60ff1983168652811515820286019350611a9e565b611a7485611674565b60005b83811015611a9657815481890152600182019150602081019050611a77565b838801955050505b50505092915050565b6000611ab38284611a24565b915081905092915050565b7f566f74696e672068617320656e6465642e000000000000000000000000000000600082015250565b6000611af46011836110d1565b9150611aff82611abe565b602082019050919050565b60006020820190508181036000830152611b2381611ae7565b9050919050565b7f596f75206861766520616c726561647920766f7465642e000000000000000000600082015250565b6000611b606017836110d1565b9150611b6b82611b2a565b602082019050919050565b60006020820190508181036000830152611b8f81611b53565b9050919050565b7f496e76616c69642063616e64696461746520696e6465782e0000000000000000600082015250565b6000611bcc6018836110d1565b9150611bd782611b96565b602082019050919050565b60006020820190508181036000830152611bfb81611bbf565b9050919050565b7f596f752061726520746865206f776e6572206f66207468697320766f74652e00600082015250565b6000611c38601f836110d1565b9150611c4382611c02565b602082019050919050565b60006020820190508181036000830152611c6781611c2b565b9050919050565b7f5468697320766f746520616c7265616479206578697374000000000000000000600082015250565b6000611ca46017836110d1565b9150611caf82611c6e565b602082019050919050565b60006020820190508181036000830152611cd381611c97565b9050919050565b6000611ce582610efa565b9150611cf083610efa565b9250828201905080821115611d0857611d07611500565b5b92915050565b611d1782610f89565b67ffffffffffffffff811115611d3057611d2f611171565b5b611d3a825461162d565b611d458282856117a8565b600060209050601f831160018114611d785760008415611d66578287015190505b611d708582611819565b865550611dd8565b601f198416611d8686611674565b60005b82811015611dae57848901518255600182019150602085019450602081019050611d89565b86831015611dcb5784890151611dc7601f8916826117fb565b8355505b6001600288020188555050505b50505050505056fea26469706673582212208ec00288de4aa87b0288d8b25b2574ec04772dbd97e76a62502e4a6ee439e4cf64736f6c63430008130033",
  "immutableReferences": {},
  "source": "// SPDX-License-Identifier: MIT\npragma solidity ^0.8.0;\n\ncontract VotingSystem {\n\n    struct VoteEvent {\n        string voteName;\n        address owner;\n        uint voteEndTime;\n        mapping(address => bool) hasVoted;\n        Candidate[] candidates;\n    }\n\n    struct Candidate {\n        string name;\n        uint voteCount;\n    }\n\n    mapping(uint => VoteEvent) voteEvents; \n    uint index = 0;\n\n    function CreateVote(string memory voteName, string[] memory candidateNames, uint endTime) public returns (uint) {\n        require(isVoteExist(voteName) == false, \"This vote already exist\");\n\n        voteEvents[index].voteEndTime = block.timestamp + endTime;\n        voteEvents[index].voteName = voteName;\n        voteEvents[index].owner = msg.sender;\n        for (uint i = 0; i < candidateNames.length; i++) {\n            voteEvents[index].candidates.push(Candidate(candidateNames[i], 0));\n        }\n        return index++;\n    }\n\n    function isVoteExist(string memory voteName) public view returns (bool) {\n        bool check = false;\n        for (uint i = 0; i < index; i++) \n        {\n            if(keccak256(abi.encodePacked(voteEvents[i].voteName)) == keccak256(abi.encodePacked(voteName))){\n                check = true;\n            }           \n        }\n        return check;\n    }\n\n    function getVoteIndex(string memory voteName) public view returns (int) {\n        int a = -1;\n        for (uint i = 0; i < index; i++) \n        {\n            if(keccak256(abi.encodePacked(voteEvents[i].voteName)) == keccak256(abi.encodePacked(voteName))){\n                a = int(i);    \n            } \n        }\n        return a;\n    }\n\n    //fuctionjs\n    function speedTimeForTestingOnly(uint voteId) public {        \n        voteEvents[voteId].voteEndTime -= 2000;\n    }\n\n    function vote(uint voteId, uint candidateIndex) public {\n        require(voteId <= index - 1, \"Vote ID out of range\");\n        // VoteEvent memory _vt = voteEvents[voteId];\n        require(block.timestamp <= voteEvents[voteId].voteEndTime, \"Voting has ended.\");\n        // \n        require(!voteEvents[voteId].hasVoted[msg.sender], \"You have already voted.\");\n        // \n        require(candidateIndex < voteEvents[voteId].candidates.length, \"Invalid candidate index.\");\n        require(voteEvents[voteId].owner != msg.sender, \"You are the owner of this vote.\");\n        // \n        voteEvents[voteId].hasVoted[msg.sender] = true;\n        // \n        voteEvents[voteId].candidates[candidateIndex].voteCount++;\n    }\n\n    function settle(uint voteId) public view returns (string memory) {\n        require(voteId <= index - 1, \"Vote ID out of range\");\n        // VoteEvent memory _vt = voteEvent[voteId];\n        require(block.timestamp >= voteEvents[voteId].voteEndTime, \"Voting is not yet over.\");\n\n        // \n        uint maxVoteCount = 0;\n        uint winningCandidateIndex = 0;\n        for (uint i = 0; i < voteEvents[voteId].candidates.length; i++) {\n            if (voteEvents[voteId].candidates[i].voteCount > maxVoteCount) {\n                maxVoteCount = voteEvents[voteId].candidates[i].voteCount;\n                winningCandidateIndex = i;\n            }\n        }\n\n        // \n        return voteEvents[voteId].candidates[winningCandidateIndex].name;\n    }\n\n    string[] Tmp;\n    function getAllRunningVote() public returns (string[] memory) {\n        delete Tmp;\n        for (uint i = 0; i < index; i++) \n        {\n            if(voteEvents[i].voteEndTime > block.timestamp)\n            {\n                Tmp.push(voteEvents[i].voteName);\n            }\n        }\n        return Tmp;\n    }\n\n    function getAllCandidatesName(uint voteId) public returns (string[] memory) {\n        require(voteId <= index - 1, \"Vote ID out of range\");\n        delete Tmp;\n        for (uint i = 0; i < voteEvents[voteId].candidates.length; i++) \n        {\n            Tmp.push(voteEvents[voteId].candidates[i].name);\n        }\n        return Tmp;\n    }\n\n    function getEndTime(uint voteId) public view returns (uint) {\n        require(voteId <= index - 1, \"Vote ID out of range\");\n        return voteEvents[voteId].voteEndTime;\n    }\n}\n",
  "sourcePath": "/home/william11ya/IPad/block-chain/contracts/VotingSystem.sol",
  "compiler": {
    "name": "solc",
    "version": "0.8.19+commit.7dd6d404.Emscripten.clang"
  },
  "schemaVersion": "3.4.13",
  "updatedAt": "2023-06-05T12:08:38.155Z",
  "networkType": "ethereum",
  "devdoc": {
    "kind": "dev",
    "methods": {},
    "version": 1
  },
  "userdoc": {
    "kind": "user",
    "methods": {},
    "version": 1
  }
}