{
  "contractName": "VotingSystem",
  "abi": [
    {
      "inputs": [
        {
          "internalType": "string",
          "name": "voteName",
          "type": "string"
        },
        {
          "internalType": "string[]",
          "name": "candidateNames",
          "type": "string[]"
        },
        {
          "internalType": "uint256",
          "name": "endTime",
          "type": "uint256"
        }
      ],
      "name": "CreateVote",
      "outputs": [
        {
          "internalType": "uint256",
          "name": "",
          "type": "uint256"
        }
      ],
      "stateMutability": "nonpayable",
      "type": "function"
    },
    {
      "inputs": [
        {
          "internalType": "string",
          "name": "voteName",
          "type": "string"
        }
      ],
      "name": "isVoteExist",
      "outputs": [
        {
          "internalType": "bool",
          "name": "",
          "type": "bool"
        }
      ],
      "stateMutability": "view",
      "type": "function",
      "constant": true
    },
    {
      "inputs": [
        {
          "internalType": "string",
          "name": "voteName",
          "type": "string"
        }
      ],
      "name": "getVoteIndex",
      "outputs": [
        {
          "internalType": "int256",
          "name": "",
          "type": "int256"
        }
      ],
      "stateMutability": "view",
      "type": "function",
      "constant": true
    },
    {
      "inputs": [
        {
          "internalType": "uint256",
          "name": "voteId",
          "type": "uint256"
        }
      ],
      "name": "speedTimeForTestingOnly",
      "outputs": [],
      "stateMutability": "nonpayable",
      "type": "function"
    },
    {
      "inputs": [
        {
          "internalType": "uint256",
          "name": "voteId",
          "type": "uint256"
        },
        {
          "internalType": "uint256",
          "name": "candidateIndex",
          "type": "uint256"
        }
      ],
      "name": "vote",
      "outputs": [],
      "stateMutability": "nonpayable",
      "type": "function"
    },
    {
      "inputs": [
        {
          "internalType": "uint256",
          "name": "voteId",
          "type": "uint256"
        }
      ],
      "name": "settle",
      "outputs": [
        {
          "internalType": "string",
          "name": "",
          "type": "string"
        }
      ],
      "stateMutability": "view",
      "type": "function",
      "constant": true
    }
  ],
  "bytecode": "0x6080604052600060015534801561001557600080fd5b506114e8806100256000396000f3fe608060405234801561001057600080fd5b50600436106100625760003560e01c806342d7d76e146100675780638df8280014610083578063accca731146100b3578063b384abef146100e3578063f3b1b9ed146100ff578063f89465271461012f575b600080fd5b610081600480360381019061007c9190610d11565b61015f565b005b61009d60048036038101906100989190610d11565b610190565b6040516100aa91906110b0565b60405180910390f35b6100cd60048036038101906100c89190610c51565b61042f565b6040516100da919061107a565b60405180910390f35b6100fd60048036038101906100f89190610d3a565b6104cd565b005b61011960048036038101906101149190610c51565b6107f6565b6040516101269190611095565b60405180910390f35b61014960048036038101906101449190610c92565b6108b2565b60405161015691906111b2565b60405180910390f35b6107d0600080838152602001908152602001600020600201600082825461018691906112ec565b9250508190555050565b6060600180546101a091906112ec565b8211156101e2576040517f08c379a00000000000000000000000000000000000000000000000000000000081526004016101d9906110f2565b60405180910390fd5b6000808381526020019081526020016000206002015442101561023a576040517f08c379a000000000000000000000000000000000000000000000000000000000815260040161023190611132565b60405180910390fd5b60008060005b6000808681526020019081526020016000206004018054905081101561033e578260008087815260200190815260200160002060040182815481106102ae577f4e487b7100000000000000000000000000000000000000000000000000000000600052603260045260246000fd5b906000526020600020906002020160010154111561032b576000808681526020019081526020016000206004018181548110610313577f4e487b7100000000000000000000000000000000000000000000000000000000600052603260045260246000fd5b90600052602060002090600202016001015492508091505b8080610336906113b4565b915050610240565b50600080858152602001908152602001600020600401818154811061038c577f4e487b7100000000000000000000000000000000000000000000000000000000600052603260045260246000fd5b906000526020600020906002020160000180546103a890611382565b80601f01602080910402602001604051908101604052809291908181526020018280546103d490611382565b80156104215780601f106103f657610100808354040283529160200191610421565b820191906000526020600020905b81548152906001019060200180831161040457829003601f168201915b505050505092505050919050565b6000806000905060005b6001548110156104c35783604051602001610454919061104c565b6040516020818303038152906040528051906020012060008083815260200190815260200160002060000160405160200161048f9190611063565b6040516020818303038152906040528051906020012014156104b057600191505b80806104bb906113b4565b915050610439565b5080915050919050565b600180546104db91906112ec565b82111561051d576040517f08c379a0000000000000000000000000000000000000000000000000000000008152600401610514906110f2565b60405180910390fd5b60008083815260200190815260200160002060020154421115610575576040517f08c379a000000000000000000000000000000000000000000000000000000000815260040161056c90611152565b60405180910390fd5b60008083815260200190815260200160002060030160003373ffffffffffffffffffffffffffffffffffffffff1673ffffffffffffffffffffffffffffffffffffffff16815260200190815260200160002060009054906101000a900460ff1615610615576040517f08c379a000000000000000000000000000000000000000000000000000000000815260040161060c906110d2565b60405180910390fd5b60008083815260200190815260200160002060040180549050811061066f576040517f08c379a000000000000000000000000000000000000000000000000000000000815260040161066690611112565b60405180910390fd5b3373ffffffffffffffffffffffffffffffffffffffff1660008084815260200190815260200160002060010160009054906101000a900473ffffffffffffffffffffffffffffffffffffffff1673ffffffffffffffffffffffffffffffffffffffff161415610713576040517f08c379a000000000000000000000000000000000000000000000000000000000815260040161070a90611192565b60405180910390fd5b600160008084815260200190815260200160002060030160003373ffffffffffffffffffffffffffffffffffffffff1673ffffffffffffffffffffffffffffffffffffffff16815260200190815260200160002060006101000a81548160ff02191690831515021790555060008083815260200190815260200160002060040181815481106107cb577f4e487b7100000000000000000000000000000000000000000000000000000000600052603260045260246000fd5b906000526020600020906002020160010160008154809291906107ed906113b4565b91905055505050565b6000807fffffffffffffffffffffffffffffffffffffffffffffffffffffffffffffffff905060005b6001548110156108a8578360405160200161083a919061104c565b604051602081830303815290604052805190602001206000808381526020019081526020016000206000016040516020016108759190611063565b604051602081830303815290604052805190602001201415610895578091505b80806108a0906113b4565b91505061081f565b5080915050919050565b60008015156108c08561042f565b151514610902576040517f08c379a00000000000000000000000000000000000000000000000000000000081526004016108f990611172565b60405180910390fd5b814261090e9190611296565b6000806001548152602001908152602001600020600201819055508360008060015481526020019081526020016000206000019080519060200190610954929190610aaa565b5033600080600154815260200190815260200160002060010160006101000a81548173ffffffffffffffffffffffffffffffffffffffff021916908373ffffffffffffffffffffffffffffffffffffffff16021790555060005b8351811015610a895760008060015481526020019081526020016000206004016040518060400160405280868481518110610a12577f4e487b7100000000000000000000000000000000000000000000000000000000600052603260045260246000fd5b60200260200101518152602001600081525090806001815401808255809150506001900390600052602060002090600202016000909190919091506000820151816000019080519060200190610a69929190610aaa565b506020820151816001015550508080610a81906113b4565b9150506109ae565b5060016000815480929190610a9d906113b4565b9190505590509392505050565b828054610ab690611382565b90600052602060002090601f016020900481019282610ad85760008555610b1f565b82601f10610af157805160ff1916838001178555610b1f565b82800160010185558215610b1f579182015b82811115610b1e578251825591602001919060010190610b03565b5b509050610b2c9190610b30565b5090565b5b80821115610b49576000816000905550600101610b31565b5090565b6000610b60610b5b846111fe565b6111cd565b9050808382526020820190508260005b85811015610ba05781358501610b868882610c12565b845260208401935060208301925050600181019050610b70565b5050509392505050565b6000610bbd610bb88461122a565b6111cd565b905082815260208101848484011115610bd557600080fd5b610be0848285611340565b509392505050565b600082601f830112610bf957600080fd5b8135610c09848260208601610b4d565b91505092915050565b600082601f830112610c2357600080fd5b8135610c33848260208601610baa565b91505092915050565b600081359050610c4b8161149b565b92915050565b600060208284031215610c6357600080fd5b600082013567ffffffffffffffff811115610c7d57600080fd5b610c8984828501610c12565b91505092915050565b600080600060608486031215610ca757600080fd5b600084013567ffffffffffffffff811115610cc157600080fd5b610ccd86828701610c12565b935050602084013567ffffffffffffffff811115610cea57600080fd5b610cf686828701610be8565b9250506040610d0786828701610c3c565b9150509250925092565b600060208284031215610d2357600080fd5b6000610d3184828501610c3c565b91505092915050565b60008060408385031215610d4d57600080fd5b6000610d5b85828601610c3c565b9250506020610d6c85828601610c3c565b9150509250929050565b610d7f81611320565b82525050565b610d8e8161132c565b82525050565b6000610d9f8261126f565b610da9818561127a565b9350610db981856020860161134f565b610dc28161148a565b840191505092915050565b6000610dd88261126f565b610de2818561128b565b9350610df281856020860161134f565b80840191505092915050565b60008154610e0b81611382565b610e15818661128b565b94506001821660008114610e305760018114610e4157610e74565b60ff19831686528186019350610e74565b610e4a8561125a565b60005b83811015610e6c57815481890152600182019150602081019050610e4d565b838801955050505b50505092915050565b6000610e8a60178361127a565b91507f596f75206861766520616c726561647920766f7465642e0000000000000000006000830152602082019050919050565b6000610eca60148361127a565b91507f566f7465204944206f7574206f662072616e67650000000000000000000000006000830152602082019050919050565b6000610f0a60188361127a565b91507f496e76616c69642063616e64696461746520696e6465782e00000000000000006000830152602082019050919050565b6000610f4a60178361127a565b91507f566f74696e67206973206e6f7420796574206f7665722e0000000000000000006000830152602082019050919050565b6000610f8a60118361127a565b91507f566f74696e672068617320656e6465642e0000000000000000000000000000006000830152602082019050919050565b6000610fca60178361127a565b91507f5468697320766f746520616c72656164792065786973740000000000000000006000830152602082019050919050565b600061100a601f8361127a565b91507f596f752061726520746865206f776e6572206f66207468697320766f74652e006000830152602082019050919050565b61104681611336565b82525050565b60006110588284610dcd565b915081905092915050565b600061106f8284610dfe565b915081905092915050565b600060208201905061108f6000830184610d76565b92915050565b60006020820190506110aa6000830184610d85565b92915050565b600060208201905081810360008301526110ca8184610d94565b905092915050565b600060208201905081810360008301526110eb81610e7d565b9050919050565b6000602082019050818103600083015261110b81610ebd565b9050919050565b6000602082019050818103600083015261112b81610efd565b9050919050565b6000602082019050818103600083015261114b81610f3d565b9050919050565b6000602082019050818103600083015261116b81610f7d565b9050919050565b6000602082019050818103600083015261118b81610fbd565b9050919050565b600060208201905081810360008301526111ab81610ffd565b9050919050565b60006020820190506111c7600083018461103d565b92915050565b6000604051905081810181811067ffffffffffffffff821117156111f4576111f361145b565b5b8060405250919050565b600067ffffffffffffffff8211156112195761121861145b565b5b602082029050602081019050919050565b600067ffffffffffffffff8211156112455761124461145b565b5b601f19601f8301169050602081019050919050565b60008190508160005260206000209050919050565b600081519050919050565b600082825260208201905092915050565b600081905092915050565b60006112a182611336565b91506112ac83611336565b9250827fffffffffffffffffffffffffffffffffffffffffffffffffffffffffffffffff038211156112e1576112e06113fd565b5b828201905092915050565b60006112f782611336565b915061130283611336565b925082821015611315576113146113fd565b5b828203905092915050565b60008115159050919050565b6000819050919050565b6000819050919050565b82818337600083830152505050565b60005b8381101561136d578082015181840152602081019050611352565b8381111561137c576000848401525b50505050565b6000600282049050600182168061139a57607f821691505b602082108114156113ae576113ad61142c565b5b50919050565b60006113bf82611336565b91507fffffffffffffffffffffffffffffffffffffffffffffffffffffffffffffffff8214156113f2576113f16113fd565b5b600182019050919050565b7f4e487b7100000000000000000000000000000000000000000000000000000000600052601160045260246000fd5b7f4e487b7100000000000000000000000000000000000000000000000000000000600052602260045260246000fd5b7f4e487b7100000000000000000000000000000000000000000000000000000000600052604160045260246000fd5b6000601f19601f8301169050919050565b6114a481611336565b81146114af57600080fd5b5056fea2646970667358221220db7a0d65b490937280fbe0014c786850cfac4b9c343740d17283dba56d75efc364736f6c63430008000033",
  "immutableReferences": {},
  "source": "// SPDX-License-Identifier: MIT\npragma solidity ^0.8.0;\n\ncontract VotingSystem {\n\n    struct VoteEvent {\n        string voteName;\n        address owner;\n        uint voteEndTime;\n        mapping(address => bool) hasVoted;\n        Candidate[] candidates;\n    }\n\n    struct Candidate {\n        string name;\n        uint voteCount;\n    }\n\n    mapping(uint => VoteEvent) voteEvents; \n    uint index = 0;\n\n    function CreateVote(string memory voteName, string[] memory candidateNames, uint endTime) public returns (uint) {\n        require(isVoteExist(voteName) == false, \"This vote already exist\");\n\n        voteEvents[index].voteEndTime = block.timestamp + endTime;\n        voteEvents[index].voteName = voteName;\n        voteEvents[index].owner = msg.sender;\n        for (uint i = 0; i < candidateNames.length; i++) {\n            voteEvents[index].candidates.push(Candidate(candidateNames[i], 0));\n        }\n        return index++;\n    }\n\n    function isVoteExist(string memory voteName) public view returns (bool) {\n        bool check = false;\n        for (uint i = 0; i < index; i++) \n        {\n            if(keccak256(abi.encodePacked(voteEvents[i].voteName)) == keccak256(abi.encodePacked(voteName))){\n                check = true;\n            }           \n        }\n        return check;\n    }\n\n    function getVoteIndex(string memory voteName) public view returns (int) {\n        int a = -1;\n        for (uint i = 0; i < index; i++) \n        {\n            if(keccak256(abi.encodePacked(voteEvents[i].voteName)) == keccak256(abi.encodePacked(voteName))){\n                a = int(i);    \n            } \n        }\n        return a;\n    }\n\n    //fuctionjs\n    function speedTimeForTestingOnly(uint voteId) public {        \n        voteEvents[voteId].voteEndTime -= 2000;\n    }\n\n    function vote(uint voteId, uint candidateIndex) public {\n        require(voteId <= index - 1, \"Vote ID out of range\");\n        // VoteEvent memory _vt = voteEvents[voteId];\n        require(block.timestamp <= voteEvents[voteId].voteEndTime, \"Voting has ended.\");\n        // \n        require(!voteEvents[voteId].hasVoted[msg.sender], \"You have already voted.\");\n        // \n        require(candidateIndex < voteEvents[voteId].candidates.length, \"Invalid candidate index.\");\n        require(voteEvents[voteId].owner != msg.sender, \"You are the owner of this vote.\");\n        // \n        voteEvents[voteId].hasVoted[msg.sender] = true;\n        // \n        voteEvents[voteId].candidates[candidateIndex].voteCount++;\n    }\n\n    function settle(uint voteId) public view returns (string memory) {\n        require(voteId <= index - 1, \"Vote ID out of range\");\n        // VoteEvent memory _vt = voteEvent[voteId];\n        require(block.timestamp >= voteEvents[voteId].voteEndTime, \"Voting is not yet over.\");\n\n        // \n        uint maxVoteCount = 0;\n        uint winningCandidateIndex = 0;\n        for (uint i = 0; i < voteEvents[voteId].candidates.length; i++) {\n            if (voteEvents[voteId].candidates[i].voteCount > maxVoteCount) {\n                maxVoteCount = voteEvents[voteId].candidates[i].voteCount;\n                winningCandidateIndex = i;\n            }\n        }\n\n        // \n        return voteEvents[voteId].candidates[winningCandidateIndex].name;\n    }\n}",
  "sourcePath": "/home/william11ya/IPad/block-chain/contracts/VotingSystem.sol",
  "compiler": {
    "name": "solc",
    "version": "0.8.0+commit.c7dfd78e.Emscripten.clang"
  },
  "schemaVersion": "3.4.13",
  "updatedAt": "2023-05-15T01:23:31.831Z",
  "networkType": "ethereum",
  "devdoc": {
    "kind": "dev",
    "methods": {},
    "version": 1
  },
  "userdoc": {
    "kind": "user",
    "methods": {},
    "version": 1
  }
}