{
  "contractName": "VotingSystem",
  "abi": [
    {
      "inputs": [
        {
          "internalType": "string",
          "name": "voteName",
          "type": "string"
        },
        {
          "internalType": "string[]",
          "name": "candidateNames",
          "type": "string[]"
        },
        {
          "internalType": "uint256",
          "name": "endTime",
          "type": "uint256"
        }
      ],
      "name": "CreateVote",
      "outputs": [
        {
          "internalType": "uint256",
          "name": "",
          "type": "uint256"
        }
      ],
      "stateMutability": "nonpayable",
      "type": "function"
    },
    {
      "inputs": [
        {
          "internalType": "string",
          "name": "voteName",
          "type": "string"
        }
      ],
      "name": "isVoteExist",
      "outputs": [
        {
          "internalType": "bool",
          "name": "",
          "type": "bool"
        }
      ],
      "stateMutability": "view",
      "type": "function",
      "constant": true
    },
    {
      "inputs": [
        {
          "internalType": "string",
          "name": "voteName",
          "type": "string"
        }
      ],
      "name": "getVoteIndex",
      "outputs": [
        {
          "internalType": "int256",
          "name": "",
          "type": "int256"
        }
      ],
      "stateMutability": "view",
      "type": "function",
      "constant": true
    },
    {
      "inputs": [
        {
          "internalType": "uint256",
          "name": "voteId",
          "type": "uint256"
        }
      ],
      "name": "speedTimeForTestingOnly",
      "outputs": [],
      "stateMutability": "nonpayable",
      "type": "function"
    },
    {
      "inputs": [
        {
          "internalType": "uint256",
          "name": "voteId",
          "type": "uint256"
        },
        {
          "internalType": "uint256",
          "name": "candidateIndex",
          "type": "uint256"
        }
      ],
      "name": "vote",
      "outputs": [],
      "stateMutability": "nonpayable",
      "type": "function"
    },
    {
      "inputs": [
        {
          "internalType": "uint256",
          "name": "voteId",
          "type": "uint256"
        }
      ],
      "name": "settle",
      "outputs": [
        {
          "internalType": "string",
          "name": "",
          "type": "string"
        }
      ],
      "stateMutability": "view",
      "type": "function",
      "constant": true
    },
    {
      "inputs": [],
      "name": "getAllRunningVote",
      "outputs": [
        {
          "internalType": "string[]",
          "name": "",
          "type": "string[]"
        }
      ],
      "stateMutability": "nonpayable",
      "type": "function"
    },
    {
      "inputs": [
        {
          "internalType": "uint256",
          "name": "voteId",
          "type": "uint256"
        }
      ],
      "name": "getAllCandidatesName",
      "outputs": [
        {
          "internalType": "string[]",
          "name": "",
          "type": "string[]"
        }
      ],
      "stateMutability": "nonpayable",
      "type": "function"
    },
    {
      "inputs": [
        {
          "internalType": "uint256",
          "name": "voteId",
          "type": "uint256"
        }
      ],
      "name": "getEndTime",
      "outputs": [
        {
          "internalType": "uint256",
          "name": "",
          "type": "uint256"
        }
      ],
      "stateMutability": "view",
      "type": "function",
      "constant": true
    }
  ],
  "bytecode": "0x6080604052600060015534801561001557600080fd5b50611e03806100256000396000f3fe608060405234801561001057600080fd5b50600436106100935760003560e01c8063accca73111610066578063accca73114610144578063b384abef14610174578063c19672f514610190578063f3b1b9ed146101ae578063f8946527146101de57610093565b806342d7d76e146100985780634de0549b146100b45780638df82800146100e45780639067b67714610114575b600080fd5b6100b260048036038101906100ad9190610f1d565b61020e565b005b6100ce60048036038101906100c99190610f1d565b61022c565b6040516100db919061109c565b60405180910390f35b6100fe60048036038101906100f99190610f1d565b610408565b60405161010b9190611108565b60405180910390f35b61012e60048036038101906101299190610f1d565b610635565b60405161013b9190611139565b60405180910390f35b61015e60048036038101906101599190611289565b6106a4565b60405161016b91906112ed565b60405180910390f35b61018e60048036038101906101899190611308565b610741565b005b610198610a43565b6040516101a5919061109c565b60405180910390f35b6101c860048036038101906101c39190611289565b610bb2565b6040516101d59190611361565b60405180910390f35b6101f860048036038101906101f39190611462565b610c6d565b6040516102059190611139565b60405180910390f35b60008060008381526020019081526020016000206002018190555050565b60606001805461023c919061151c565b82111561027e576040517f08c379a00000000000000000000000000000000000000000000000000000000081526004016102759061159c565b60405180910390fd5b6002600061028c9190610e31565b60005b6000808481526020019081526020016000206004018054905081101561032e57600260008085815260200190815260200160002060040182815481106102d8576102d76115bc565b5b906000526020600020906002020160000190806001815401808255809150506001900390600052602060002001600090919091909150908161031a9190611822565b5080806103269061190a565b91505061028f565b506002805480602002602001604051908101604052809291908181526020016000905b828210156103fd5783829060005260206000200180546103709061161a565b80601f016020809104026020016040519081016040528092919081815260200182805461039c9061161a565b80156103e95780601f106103be576101008083540402835291602001916103e9565b820191906000526020600020905b8154815290600101906020018083116103cc57829003601f168201915b505050505081526020019060010190610351565b505050509050919050565b606060018054610418919061151c565b82111561045a576040517f08c379a00000000000000000000000000000000000000000000000000000000081526004016104519061159c565b60405180910390fd5b600080838152602001908152602001600020600201544210156104b2576040517f08c379a00000000000000000000000000000000000000000000000000000000081526004016104a99061199e565b60405180910390fd5b60008060005b6000808681526020019081526020016000206004018054905081101561056a57826000808781526020019081526020016000206004018281548110610500576104ff6115bc565b5b906000526020600020906002020160010154111561055757600080868152602001908152602001600020600401818154811061053f5761053e6115bc565b5b90600052602060002090600202016001015492508091505b80806105629061190a565b9150506104b8565b506000808581526020019081526020016000206004018181548110610592576105916115bc565b5b906000526020600020906002020160000180546105ae9061161a565b80601f01602080910402602001604051908101604052809291908181526020018280546105da9061161a565b80156106275780601f106105fc57610100808354040283529160200191610627565b820191906000526020600020905b81548152906001019060200180831161060a57829003601f168201915b505050505092505050919050565b600060018054610645919061151c565b821115610687576040517f08c379a000000000000000000000000000000000000000000000000000000000815260040161067e9061159c565b60405180910390fd5b600080838152602001908152602001600020600201549050919050565b6000806000905060005b60015481101561073757836040516020016106c991906119fa565b604051602081830303815290604052805190602001206000808381526020019081526020016000206000016040516020016107049190611a94565b604051602081830303815290604052805190602001200361072457600191505b808061072f9061190a565b9150506106ae565b5080915050919050565b6001805461074f919061151c565b821115610791576040517f08c379a00000000000000000000000000000000000000000000000000000000081526004016107889061159c565b60405180910390fd5b600080838152602001908152602001600020600201544211156107e9576040517f08c379a00000000000000000000000000000000000000000000000000000000081526004016107e090611af7565b60405180910390fd5b60008083815260200190815260200160002060030160003373ffffffffffffffffffffffffffffffffffffffff1673ffffffffffffffffffffffffffffffffffffffff16815260200190815260200160002060009054906101000a900460ff1615610889576040517f08c379a000000000000000000000000000000000000000000000000000000000815260040161088090611b63565b60405180910390fd5b6000808381526020019081526020016000206004018054905081106108e3576040517f08c379a00000000000000000000000000000000000000000000000000000000081526004016108da90611bcf565b60405180910390fd5b3373ffffffffffffffffffffffffffffffffffffffff1660008084815260200190815260200160002060010160009054906101000a900473ffffffffffffffffffffffffffffffffffffffff1673ffffffffffffffffffffffffffffffffffffffff1603610986576040517f08c379a000000000000000000000000000000000000000000000000000000000815260040161097d90611c3b565b60405180910390fd5b600160008084815260200190815260200160002060030160003373ffffffffffffffffffffffffffffffffffffffff1673ffffffffffffffffffffffffffffffffffffffff16815260200190815260200160002060006101000a81548160ff0219169083151502179055506000808381526020019081526020016000206004018181548110610a1857610a176115bc565b5b90600052602060002090600202016001016000815480929190610a3a9061190a565b91905055505050565b606060026000610a539190610e31565b60005b600154811015610ada5742600080838152602001908152602001600020600201541115610ac7576002600080838152602001908152602001600020600001908060018154018082558091505060019003906000526020600020016000909190919091509081610ac59190611822565b505b8080610ad29061190a565b915050610a56565b506002805480602002602001604051908101604052809291908181526020016000905b82821015610ba9578382906000526020600020018054610b1c9061161a565b80601f0160208091040260200160405190810160405280929190818152602001828054610b489061161a565b8015610b955780601f10610b6a57610100808354040283529160200191610b95565b820191906000526020600020905b815481529060010190602001808311610b7857829003601f168201915b505050505081526020019060010190610afd565b50505050905090565b6000807fffffffffffffffffffffffffffffffffffffffffffffffffffffffffffffffff905060005b600154811015610c635783604051602001610bf691906119fa565b60405160208183030381529060405280519060200120600080838152602001908152602001600020600001604051602001610c319190611a94565b6040516020818303038152906040528051906020012003610c50578091505b8080610c5b9061190a565b915050610bdb565b5080915050919050565b6000801515610c7b856106a4565b151514610cbd576040517f08c379a0000000000000000000000000000000000000000000000000000000008152600401610cb490611ca7565b60405180910390fd5b8142610cc99190611cc7565b6000806001548152602001908152602001600020600201819055508360008060015481526020019081526020016000206000019081610d089190611cfb565b5033600080600154815260200190815260200160002060010160006101000a81548173ffffffffffffffffffffffffffffffffffffffff021916908373ffffffffffffffffffffffffffffffffffffffff16021790555060005b8351811015610e105760008060015481526020019081526020016000206004016040518060400160405280868481518110610da057610d9f6115bc565b5b60200260200101518152602001600081525090806001815401808255809150506001900390600052602060002090600202016000909190919091506000820151816000019081610df09190611cfb565b506020820151816001015550508080610e089061190a565b915050610d62565b5060016000815480929190610e249061190a565b9190505590509392505050565b5080546000825590600052602060002090810190610e4f9190610e52565b50565b5b80821115610e725760008181610e699190610e76565b50600101610e53565b5090565b508054610e829061161a565b6000825580601f10610e945750610eb3565b601f016020900490600052602060002090810190610eb29190610eb6565b5b50565b5b80821115610ecf576000816000905550600101610eb7565b5090565b6000604051905090565b600080fd5b600080fd5b6000819050919050565b610efa81610ee7565b8114610f0557600080fd5b50565b600081359050610f1781610ef1565b92915050565b600060208284031215610f3357610f32610edd565b5b6000610f4184828501610f08565b91505092915050565b600081519050919050565b600082825260208201905092915050565b6000819050602082019050919050565b600081519050919050565b600082825260208201905092915050565b60005b83811015610fb0578082015181840152602081019050610f95565b60008484015250505050565b6000601f19601f8301169050919050565b6000610fd882610f76565b610fe28185610f81565b9350610ff2818560208601610f92565b610ffb81610fbc565b840191505092915050565b60006110128383610fcd565b905092915050565b6000602082019050919050565b600061103282610f4a565b61103c8185610f55565b93508360208202850161104e85610f66565b8060005b8581101561108a578484038952815161106b8582611006565b94506110768361101a565b925060208a01995050600181019050611052565b50829750879550505050505092915050565b600060208201905081810360008301526110b68184611027565b905092915050565b600082825260208201905092915050565b60006110da82610f76565b6110e481856110be565b93506110f4818560208601610f92565b6110fd81610fbc565b840191505092915050565b6000602082019050818103600083015261112281846110cf565b905092915050565b61113381610ee7565b82525050565b600060208201905061114e600083018461112a565b92915050565b600080fd5b600080fd5b7f4e487b7100000000000000000000000000000000000000000000000000000000600052604160045260246000fd5b61119682610fbc565b810181811067ffffffffffffffff821117156111b5576111b461115e565b5b80604052505050565b60006111c8610ed3565b90506111d4828261118d565b919050565b600067ffffffffffffffff8211156111f4576111f361115e565b5b6111fd82610fbc565b9050602081019050919050565b82818337600083830152505050565b600061122c611227846111d9565b6111be565b90508281526020810184848401111561124857611247611159565b5b61125384828561120a565b509392505050565b600082601f8301126112705761126f611154565b5b8135611280848260208601611219565b91505092915050565b60006020828403121561129f5761129e610edd565b5b600082013567ffffffffffffffff8111156112bd576112bc610ee2565b5b6112c98482850161125b565b91505092915050565b60008115159050919050565b6112e7816112d2565b82525050565b600060208201905061130260008301846112de565b92915050565b6000806040838503121561131f5761131e610edd565b5b600061132d85828601610f08565b925050602061133e85828601610f08565b9150509250929050565b6000819050919050565b61135b81611348565b82525050565b60006020820190506113766000830184611352565b92915050565b600067ffffffffffffffff8211156113975761139661115e565b5b602082029050602081019050919050565b600080fd5b60006113c06113bb8461137c565b6111be565b905080838252602082019050602084028301858111156113e3576113e26113a8565b5b835b8181101561142a57803567ffffffffffffffff81111561140857611407611154565b5b808601611415898261125b565b855260208501945050506020810190506113e5565b5050509392505050565b600082601f83011261144957611448611154565b5b81356114598482602086016113ad565b91505092915050565b60008060006060848603121561147b5761147a610edd565b5b600084013567ffffffffffffffff81111561149957611498610ee2565b5b6114a58682870161125b565b935050602084013567ffffffffffffffff8111156114c6576114c5610ee2565b5b6114d286828701611434565b92505060406114e386828701610f08565b9150509250925092565b7f4e487b7100000000000000000000000000000000000000000000000000000000600052601160045260246000fd5b600061152782610ee7565b915061153283610ee7565b925082820390508181111561154a576115496114ed565b5b92915050565b7f566f7465204944206f7574206f662072616e6765000000000000000000000000600082015250565b60006115866014836110be565b915061159182611550565b602082019050919050565b600060208201905081810360008301526115b581611579565b9050919050565b7f4e487b7100000000000000000000000000000000000000000000000000000000600052603260045260246000fd5b7f4e487b7100000000000000000000000000000000000000000000000000000000600052602260045260246000fd5b6000600282049050600182168061163257607f821691505b602082108103611645576116446115eb565b5b50919050565b60008154905061165a8161161a565b9050919050565b60008190508160005260206000209050919050565b60008190508160005260206000209050919050565b60006020601f8301049050919050565b600082821b905092915050565b6000600883026116d87fffffffffffffffffffffffffffffffffffffffffffffffffffffffffffffffff8261169b565b6116e2868361169b565b95508019841693508086168417925050509392505050565b6000819050919050565b600061171f61171a61171584610ee7565b6116fa565b610ee7565b9050919050565b6000819050919050565b61173983611704565b61174d61174582611726565b8484546116a8565b825550505050565b600090565b611762611755565b61176d818484611730565b505050565b5b818110156117915761178660008261175a565b600181019050611773565b5050565b601f8211156117d6576117a781611661565b6117b08461168b565b810160208510156117bf578190505b6117d36117cb8561168b565b830182611772565b50505b505050565b600082821c905092915050565b60006117f9600019846008026117db565b1980831691505092915050565b600061181283836117e8565b9150826002028217905092915050565b818103611830575050611908565b6118398261164b565b67ffffffffffffffff8111156118525761185161115e565b5b61185c825461161a565b611867828285611795565b6000601f8311600181146118965760008415611884578287015490505b61188e8582611806565b865550611901565b601f1984166118a487611676565b96506118af86611661565b60005b828110156118d7578489015482556001820191506001850194506020810190506118b2565b868310156118f457848901546118f0601f8916826117e8565b8355505b6001600288020188555050505b5050505050505b565b600061191582610ee7565b91507fffffffffffffffffffffffffffffffffffffffffffffffffffffffffffffffff8203611947576119466114ed565b5b600182019050919050565b7f566f74696e67206973206e6f7420796574206f7665722e000000000000000000600082015250565b60006119886017836110be565b915061199382611952565b602082019050919050565b600060208201905081810360008301526119b78161197b565b9050919050565b600081905092915050565b60006119d482610f76565b6119de81856119be565b93506119ee818560208601610f92565b80840191505092915050565b6000611a0682846119c9565b915081905092915050565b60008154611a1e8161161a565b611a2881866119be565b94506001821660008114611a435760018114611a5857611a8b565b60ff1983168652811515820286019350611a8b565b611a6185611661565b60005b83811015611a8357815481890152600182019150602081019050611a64565b838801955050505b50505092915050565b6000611aa08284611a11565b915081905092915050565b7f566f74696e672068617320656e6465642e000000000000000000000000000000600082015250565b6000611ae16011836110be565b9150611aec82611aab565b602082019050919050565b60006020820190508181036000830152611b1081611ad4565b9050919050565b7f596f75206861766520616c726561647920766f7465642e000000000000000000600082015250565b6000611b4d6017836110be565b9150611b5882611b17565b602082019050919050565b60006020820190508181036000830152611b7c81611b40565b9050919050565b7f496e76616c69642063616e64696461746520696e6465782e0000000000000000600082015250565b6000611bb96018836110be565b9150611bc482611b83565b602082019050919050565b60006020820190508181036000830152611be881611bac565b9050919050565b7f596f752061726520746865206f776e6572206f66207468697320766f74652e00600082015250565b6000611c25601f836110be565b9150611c3082611bef565b602082019050919050565b60006020820190508181036000830152611c5481611c18565b9050919050565b7f5468697320766f746520616c7265616479206578697374000000000000000000600082015250565b6000611c916017836110be565b9150611c9c82611c5b565b602082019050919050565b60006020820190508181036000830152611cc081611c84565b9050919050565b6000611cd282610ee7565b9150611cdd83610ee7565b9250828201905080821115611cf557611cf46114ed565b5b92915050565b611d0482610f76565b67ffffffffffffffff811115611d1d57611d1c61115e565b5b611d27825461161a565b611d32828285611795565b600060209050601f831160018114611d655760008415611d53578287015190505b611d5d8582611806565b865550611dc5565b601f198416611d7386611661565b60005b82811015611d9b57848901518255600182019150602085019450602081019050611d76565b86831015611db85784890151611db4601f8916826117e8565b8355505b6001600288020188555050505b50505050505056fea264697066735822122092be381c61061cd077829359e8eef43853f1d9b4d013df63ccc8fc9d930ed3b264736f6c63430008130033",
  "immutableReferences": {},
  "source": "// SPDX-License-Identifier: MIT\npragma solidity ^0.8.0;\n\ncontract VotingSystem {\n\n    struct VoteEvent {\n        string voteName;\n        address owner;\n        uint voteEndTime;\n        mapping(address => bool) hasVoted;\n        Candidate[] candidates;\n    }\n\n    struct Candidate {\n        string name;\n        uint voteCount;\n    }\n\n    mapping(uint => VoteEvent) voteEvents; \n    uint index = 0;\n\n    function CreateVote(string memory voteName, string[] memory candidateNames, uint endTime) public returns (uint) {\n        require(isVoteExist(voteName) == false, \"This vote already exist\");\n\n        voteEvents[index].voteEndTime = block.timestamp + endTime;\n        voteEvents[index].voteName = voteName;\n        voteEvents[index].owner = msg.sender;\n        for (uint i = 0; i < candidateNames.length; i++) {\n            voteEvents[index].candidates.push(Candidate(candidateNames[i], 0));\n        }\n        return index++;\n    }\n\n    function isVoteExist(string memory voteName) public view returns (bool) {\n        bool check = false;\n        for (uint i = 0; i < index; i++) \n        {\n            if(keccak256(abi.encodePacked(voteEvents[i].voteName)) == keccak256(abi.encodePacked(voteName))){\n                check = true;\n            }           \n        }\n        return check;\n    }\n\n    function getVoteIndex(string memory voteName) public view returns (int) {\n        int a = -1;\n        for (uint i = 0; i < index; i++) \n        {\n            if(keccak256(abi.encodePacked(voteEvents[i].voteName)) == keccak256(abi.encodePacked(voteName))){\n                a = int(i);    \n            } \n        }\n        return a;\n    }\n\n    //fuctionjs\n    function speedTimeForTestingOnly(uint voteId) public {        \n        voteEvents[voteId].voteEndTime = 0;\n    }\n\n    function vote(uint voteId, uint candidateIndex) public {\n        require(voteId <= index - 1, \"Vote ID out of range\");\n        // VoteEvent memory _vt = voteEvents[voteId];\n        require(block.timestamp <= voteEvents[voteId].voteEndTime, \"Voting has ended.\");\n        // \n        require(!voteEvents[voteId].hasVoted[msg.sender], \"You have already voted.\");\n        // \n        require(candidateIndex < voteEvents[voteId].candidates.length, \"Invalid candidate index.\");\n        require(voteEvents[voteId].owner != msg.sender, \"You are the owner of this vote.\");\n        // \n        voteEvents[voteId].hasVoted[msg.sender] = true;\n        // \n        voteEvents[voteId].candidates[candidateIndex].voteCount++;\n    }\n\n    function settle(uint voteId) public view returns (string memory) {\n        require(voteId <= index - 1, \"Vote ID out of range\");\n        // VoteEvent memory _vt = voteEvent[voteId];\n        require(block.timestamp >= voteEvents[voteId].voteEndTime, \"Voting is not yet over.\");\n\n        // \n        uint maxVoteCount = 0;\n        uint winningCandidateIndex = 0;\n        for (uint i = 0; i < voteEvents[voteId].candidates.length; i++) {\n            if (voteEvents[voteId].candidates[i].voteCount > maxVoteCount) {\n                maxVoteCount = voteEvents[voteId].candidates[i].voteCount;\n                winningCandidateIndex = i;\n            }\n        }\n\n        // \n        return voteEvents[voteId].candidates[winningCandidateIndex].name;\n    }\n\n    string[] Tmp;\n    function getAllRunningVote() public returns (string[] memory) {\n        delete Tmp;\n        for (uint i = 0; i < index; i++) \n        {\n            if(voteEvents[i].voteEndTime > block.timestamp)\n            {\n                Tmp.push(voteEvents[i].voteName);\n            }\n        }\n        return Tmp;\n    }\n\n    function getAllCandidatesName(uint voteId) public returns (string[] memory) {\n        require(voteId <= index - 1, \"Vote ID out of range\");\n        delete Tmp;\n        for (uint i = 0; i < voteEvents[voteId].candidates.length; i++) \n        {\n            Tmp.push(voteEvents[voteId].candidates[i].name);\n        }\n        return Tmp;\n    }\n\n    function getEndTime(uint voteId) public view returns (uint) {\n        require(voteId <= index - 1, \"Vote ID out of range\");\n        return voteEvents[voteId].voteEndTime;\n    }\n}\n",
  "sourcePath": "/home/william11ya/IPad/block-chain/contracts/VotingSystem.sol",
  "compiler": {
    "name": "solc",
    "version": "0.8.19+commit.7dd6d404.Emscripten.clang"
  },
  "schemaVersion": "3.4.13",
  "updatedAt": "2023-06-06T09:56:08.587Z",
  "networkType": "ethereum",
  "devdoc": {
    "kind": "dev",
    "methods": {},
    "version": 1
  },
  "userdoc": {
    "kind": "user",
    "methods": {},
    "version": 1
  }
}